:100000000C9463000C948B000C948B000C948B006C
:100010000C948B000C948B000C948B000C94B50109
:100020000C948B000C948B000C948B000C948B0024
:100030000C948B000C948B000C948B000C948B0014
:100040000C94960C0C948B000C94210F0C94530F71
:100050000C948B000C948B000C948B000C948B00F4
:100060000C948B000C948B0000000008000201002F
:100070000003040700000000000000000102040863
:100080001020408001020408102001020408102002
:10009000040404040404040402020202020203032E
:1000A00003030303000000002300260029000000D2
:1000B0000000250028002B0000000000240027007D
:1000C0002A00DF00830F11241FBECFEFD8E0DEBF70
:1000D000CDBF11E0A0E0B1E0E6E4F7E202C0059098
:1000E0000D92A034B107D9F722E0A0E4B1E001C03D
:1000F0001D92A93CB207E1F710E0C6ECD0E004C0C5
:100100002297FE010E948E13C23CD107C9F70E94BC
:10011000F2100C94A1130C94000026E040E855E284
:1001200060E070E08CE292E00E94BF0E80E591E01A
:100130000C94740260E471E080E591E00E94410358
:10014000892BE1F160E071E08CE292E00E940F10F7
:1001500040914401509145016091460170914701E1
:1001600022E030E08CE292E00E94DF1060914001DA
:10017000709141014AE050E08CE292E00E94BA1096
:1001800060914C0170914D014AE050E08CE292E0A8
:100190000E94BA1060914801709149014AE050E014
:1001A0008CE292E00E94BA1060E171E08CE292E091
:1001B0000E940F1080E591E00C948B0208956BE093
:1001C00070E080E591E00C946F02CF92DF92EF92A5
:1001D000FF92CF93DF93EC01882777FD8095982FCE
:1001E0000E9405126B017C0120E030E040E45FE3F7
:1001F0000E94B51220E030E048E452E40E946A1107
:100200000E94D211C617D707D4F020E030E040EAB0
:100210005FE3C701B6010E94B51220E030E048E478
:1002200052E40E946A1120E030E040E85FE30E945F
:1002300002110E94D21121E06C177D070CF420E01E
:10024000822F90E0DF91CF91FF90EF90DF90CF90E1
:100250000895CF92DF92EF92FF92CF93DF93EC015C
:100260006C597F4F882777FD8095982F0E94051243
:100270006B017C0120E030E040E45FE30E94B512B6
:1002800020E030E048E452E40E946A110E94D2115A
:10029000C617D707D4F020E030E040EA5FE3C7019B
:1002A000B6010E94B51220E030E048E452E40E941A
:1002B0006A1120E030E040E85FE30E9402110E94F2
:1002C000D21121E06C177D070CF420E0822F90E022
:1002D000DF91CF91FF90EF90DF90CF900895CF9274
:1002E000DF92EF92FF92CF93DF93EC016456710996
:1002F000882777FD8095982F0E9405126B017C015D
:1003000020E030E040E45FE30E94B51220E030E0FE
:1003100048E452E40E946A110E94D211C617D7071E
:10032000D4F020E030E040EA5FE3C701B6010E946C
:10033000B51220E030E048E452E40E946A1120E067
:1003400030E040E85FE30E9402110E94D21121E0F8
:100350006C177D070CF420E0822F90E0DF91CF91A5
:10036000FF90EF90DF90CF9008951F920F920FB6FD
:100370000F9211242F933F934F935F936F937F932B
:100380008F939F93AF93BF93EF93FF93809152010D
:100390000E94B30D20915601309157012F5F3F4FBE
:1003A000309357012093560190915501953618F0DE
:1003B00096E090935101909151019430C9F128F445
:1003C000923069F09330D1F05EC0953009F451C09D
:1003D000963009F058C091E09093220251C08111EB
:1003E00052C020915601309157012436310508F44E
:1003F00042C010922202109255011CC0813009F0B7
:1004000042C0E091550191E09E0F90935501F0E0BC
:100410002091560130915701EE0FFF1FEF5AFE4F0A
:1004200030872783109257011092560194E029C01B
:10043000811117C0E091550191E09E0F90935501F5
:10044000F0E02091560130915701EE0FFF1FEF5A57
:10045000FE4F30872783109257011092560193E088
:1004600010C020915601309157012536310558F0C2
:1004700007C0811108C0109257011092560103C0A5
:1004800095E090935101909154019923B9F0811115
:100490000AC080915301882321F08091530161E0CB
:1004A00009C02D9A0BC080915301882331F08091AF
:1004B000530160E00E947D0D01C02D98FF91EF91E6
:1004C000BF91AF919F918F917F916F915F914F916C
:1004D0003F912F910F900FBE0F901F901895609332
:1004E0005201109254010895F89482E08093B00074
:1004F0008093B10094E69093B3001092B200809381
:1005000070007894809351011092550180915201AE
:1005100060E00C94440D82E08093510110925501EB
:1005200008958F929F92AF92BF92CF92DF92EF92F7
:10053000FF927B01BA0180E090E00E9403124B0120
:100540005C01B70180E090E00E9403126B017C0126
:100550002DEC3CEC4CE45FE30E94B5129B01AC0136
:10056000C501B4010E94661187FD17C02DEC3CEC5B
:100570004CE45FE3C501B4010E94B5129B01AC01DC
:10058000C701B6010E946611992787FD90958827BB
:10059000990F881F9927019602C080E090E0FF9094
:1005A000EF90DF90CF90BF90AF909F908F90089585
:1005B0008F929F92AF92BF92CF92DF92EF92FF9273
:1005C0000F931F93CF93DF936C01EB01EC84FD84B9
:1005D00086E0E816F1040CF444C0EE0CFF1C06E0C3
:1005E00010E045EC842E4DE9942E4CE1A42E41E818
:1005F000B42E8A859B85FC01E00FF11F408151815B
:10060000F8013497E80FF91F60817181C6010E94DB
:100610009102FC01A501940163E971E080E091E0A1
:100620000E9418134F01AA2497FCA094BA2C862686
:100630009726A826B9260E5F1F4F0E151F05C9F66F
:100640008C829D82AE82BF8280E290E0998788870B
:100650008FEF9FEF9983888361E070E080E090E006
:1006600003C060E070E0CB01DF91CF911F910F914B
:10067000FF90EF90DF90CF90BF90AF909F908F90C2
:1006800008950F931F93CF93DF938C01EB0188E5BF
:1006900091E09B878A878091550190E09D878C87A8
:1006A0008091220290E09F878E8780915101853052
:1006B00009F05EC0C8010E94A006882319F081E0FD
:1006C00090E058C0BE01C8010E94590B8111F7CFBC
:1006D000BE01C8010E94B50A8111F1CFBE01C80157
:1006E0000E9411068111EBCFBE01C8010E9477085C
:1006F0008111E5CFBE01C8010E941E098111DFCF23
:10070000BE01C8010E943F078111D9CFBE01C801B7
:100710000E9484058111D3CFBE01C8010E94CB0481
:100720008111CDCFBE01C8010E94160A8111C7CF29
:10073000BE01C8010E94F40B8111C1CFBE01C801E6
:100740000E94BF038111BBCFBE01C8010E945004AB
:100750008111B5CFBE01C8010E94D802672B682B5A
:10076000692B09F0ACCF82E08093510110925501C2
:1007700080E090E0DF91CF911F910F910895AF92AB
:10078000BF92CF92DF92EF92FF920F931F93CF937E
:10079000DF93EB0180915501883510F480E075C03E
:1007A000EA85FB858281938160E672E20E942901DD
:1007B000892BA1F3EA85FB858481958164E971E148
:1007C0000E946F01892B51F3BEE1CB2ED12C1DE18C
:1007D000E12EF12C00E010E08091550190E00497AB
:1007E000E816F906C4F5EA85FB85C701880F991F4D
:1007F000E80FF91F8081918164EF71E00E94290167
:10080000892B61F25601AA0CBB1CEA85FB85EA0D17
:10081000FB1D8081918168E572E00E946F01892B48
:1008200021F0000F111F01600EC0EA85FB85EA0D63
:10083000FB1D8081918164EA76E00E946F01892B23
:1008400049F0000F111F82E0E80EF11C82E0C80E93
:10085000D11CC2CF760181E0E81AF108F594E79443
:10086000F986E8868AE2E816F1040CF497CFC8010D
:10087000AA2797FDA095BA2F8C839D83AE83BF8353
:1008800089E090E09983888381E0DF91CF911F9187
:100890000F91FF90EF90DF90CF90BF90AF900895B1
:1008A000AF92BF92CF92DF92EF92FF920F931F937E
:1008B000CF93DF93EB0180915501803211F080E0FE
:1008C0005FC0EA85FB85828193816CE271E00E94C2
:1008D0002901892BA1F3EA85FB85848195816EEE40
:1008E00072E00E946F01892B51F306E010E0C12CE9
:1008F000D12C7601EA85FB85E00FF11F8081918183
:100900006CE271E00E942901892BC9F2580182E052
:10091000A80EB11CEA85FB85EA0DFB1D8081918143
:1009200068E077E00E946F01892B39F0CC0CDD1C68
:10093000EE1CFF1C6894C0F811C0EA85FB85EA0D27
:10094000FB1D808191816EEE72E00E946F01892B08
:1009500009F4B5CFCC0CDD1CEE1CFF1C0C5F1F4F47
:100960000E33110539F68EE090E099878887CC82A6
:10097000DD82EE82FF828FE090E09983888381E0C0
:10098000DF91CF911F910F91FF90EF90DF90CF906B
:10099000BF90AF900895AF92BF92CF92DF92EF9247
:1009A000FF920F931F93CF93DF93EB01809155013B
:1009B000823261F5EA85FB858281938168E572E088
:1009C0000E942901892B11F18091550190E08150FD
:1009D0009048880F991FEA85FB85E80FF91F8081F1
:1009E000918168E572E00E942901892B79F01986CE
:1009F00018868FEF9FEFDC018C839D83AE83BF83CE
:100A000086E090E09983888381E073C0EA85FB8566
:100A10008281938160E47FE10E942901892B21F08A
:100A200080915501813210F480E063C0EA85FB8536
:100A30008481958160EA7FE00E946F01892BA1F398
:100A400058E0A52EB12C03E010E0C12CD12C76018A
:100A5000EA85FB85C801880F991FE80FF91F80817F
:100A6000918168E572E00E942901892BE9F2EA850B
:100A7000FB85EA0DFB1D8081918160E476E00E9498
:100A80006F01892B39F0CC0CDD1CEE1CFF1C689427
:100A9000C0F811C0EA85FB85EA0DFB1D80819181BC
:100AA00066E272E00E946F01892B09F4BDCFCC0C85
:100AB000DD1CEE1CFF1C0E5F1F4F84E0A80EB11C56
:100AC0000332110529F6EA85FB85EA5BFF4F808139
:100AD000918168E572E00E942901892B09F4A4CF75
:100AE00080E190E099878887CC82DD82EE82FF8268
:100AF00087CFDF91CF911F910F91FF90EF90DF9003
:100B0000CF90BF90AF900895AF92BF92CF92DF92F7
:100B1000EF92FF920F931F93CF93DF93EB0180919E
:100B20005501893310F480E071C0EA85FB8582812C
:100B3000938160E47FE10E942901892BA1F3EA857A
:100B4000FB858481958160EA7FE00E946F01892B9B
:100B500051F338E0A32EB12C03E010E0C12CD12CCE
:100B60007601EA85FB85C801880F991FE80FF91FF8
:100B70008081918168E572E00E942901892B99F2B8
:100B8000EA85FB85EA0DFB1D8081918160E476E0BA
:100B90000E946F01892B39F0CC0CDD1CEE1CFF1C70
:100BA0006894C0F811C0EA85FB85EA0DFB1D8081C1
:100BB000918166E272E00E946F01892B09F4B3CF44
:100BC000CC0CDD1CEE1CFF1C0E5F1F4F84E0A80E3A
:100BD000B11C0B33110529F6EA85FB85EA58FF4F56
:100BE0008081918168E572E00E942901892B09F4D6
:100BF0009ACF8CE190E099878887CC82DD82EE8263
:100C0000FF828AE090E09983888381E0DF91CF9131
:100C10001F910F91FF90EF90DF90CF90BF90AF901A
:100C200008956F927F928F929F92AF92BF92CF92D0
:100C3000DF92EF92FF920F931F93CF93DF93EB011D
:100C400080915501823208F461C0EA85FB8582817A
:100C500093816EE571E00E942901892B09F456C049
:100C600063E0A62EB12C02E010E0C12CD12C76015D
:100C700035018091550190E0A816B906E4F54801C8
:100C8000880C991CEA85FB85E80DF91D808191810E
:100C90006EE977E00E942901892B39F0CC0CDD1C2C
:100CA000EE1CFF1C6894C0F810C0EA85FB85E80DB7
:100CB000F91D808191816EEE72E00E942901892BDD
:100CC00029F1CC0CDD1CEE1CFF1CC501880F991FFF
:100CD000EA85FB85E80FF91F808191816EE571E05F
:100CE0000E946F0122E0A20EB11C892B19F00E5F49
:100CF0001F4FBECF83010150110915950795198724
:100D000008870031110524F41986188680E009C08F
:100D1000CC82DD82EE82FF828CE090E09983888332
:100D200081E0DF91CF911F910F91FF90EF90DF90C5
:100D3000CF90BF90AF909F908F907F906F900895CD
:100D4000AF92BF92CF92DF92EF92FF920F931F93D9
:100D5000CF93DF93EB01EA85FB858281938168E283
:100D600073E20E942901892B11F480E07DC08091FB
:100D70005501843019F5EA85FB85848195816AECFB
:100D800078E00E946F01892BC9F0EA85FB85868196
:100D9000978160E372E00E942901892B79F019861E
:100DA00018868FEF9FEFDC018C839D83AE83BF831A
:100DB00083E090E09983888381E056C0809155015B
:100DC000843498F2EA85FB858481958164E971E138
:100DD0000E946F01892B49F206E010E0C12CD12C52
:100DE0007601EA85FB85E00FF11F8081918160E348
:100DF00072E00E942901892B09F4B7CF580182E0E3
:100E0000A80EB11CEA85FB85EA0DFB1D808191814E
:100E10006AE976E00E946F01892B39F0CC0CDD1C69
:100E2000EE1CFF1C6894C0F811C0EA85FB85EA0D32
:100E3000FB1D8081918160E372E00E946F01892B2C
:100E400009F493CFCC0CDD1CEE1CFF1C0C5F1F4F74
:100E50000638110531F680E290E099878887CC82C8
:100E6000DD82EE82FF82A4CFDF91CF911F910F919F
:100E7000FF90EF90DF90CF90BF90AF9008958F924A
:100E80009F92AF92BF92CF92DF92EF92FF920F9319
:100E90001F93CF93DF9300D000D0CDB7DEB74B01C7
:100EA000DB011A96ED91FC911B97828193816EEA8A
:100EB0007DE00E942901892B11F480E093C0D401C8
:100EC0001A96ED91FC911B978481958166ED76E0F1
:100ED0000E942901892B89F3E6E0EE2EF12C20E017
:100EE00030E040E050E0A12CB12CC12CD12CD40139
:100EF0001A96ED91FC911B97EE0DFF1D808191815B
:100F000066EF71E029833A834B835C830E94290159
:100F1000892B99F287010E5F1F4FD4011A96ED912C
:100F2000FC911B97E00FF11F808191816CED74E0C3
:100F30000E946F0129813A814B815C81892B39F0B4
:100F4000B501C60101E00E94551321601DC0D40106
:100F50001A96ED91FC911B97E00FF11F8081918112
:100F600060E971E029833A834B835C830E946F01BF
:100F700029813A814B815C81892B09F49ECFB5018F
:100F8000C60101E00E9455135B016C01B4E0EB0E59
:100F9000F11CE6ECEE16F10409F0A9CFD401149689
:100FA0002C93149715963C93159716964C93169779
:100FB00017965C931797B501C60100E20E94701363
:100FC00012962C93129713963C93139785E090E01A
:100FD00011969C938E9380E390E019969C938E9348
:100FE000189781E00F900F900F900F90DF91CF91A5
:100FF0001F910F91FF90EF90DF90CF90BF90AF9037
:101000009F908F9008958F929F92AF92BF92CF92B0
:10101000DF92EF92FF920F931F93CF93DF937A01AA
:101020006901DA01CD91DC91FB0184859585C817B2
:10103000D9070CF04AC0CE01880F991F0284F385AE
:10104000E02DE80FF91FA080B180C170DD27F1E02D
:10105000CF27209719F484E690E002C08CE99FEF37
:101060004801880E991EB401C5010E94E500892B34
:1010700099F4800E911EB401C5010E94E500892BF0
:1010800071F4B401600F711FC5010E94E500892B46
:10109000F9F023E030E005C021E030E002C022E0BA
:1010A00030E0D6018D919C9111970196821793079C
:1010B00044F0F60111821082D7018D919C91119715
:1010C00001968D939C93CE0105C081E090E002C013
:1010D0008FEF9FEFDF91CF911F910F91FF90EF90D6
:1010E000DF90CF90BF90AF909F908F9008954F92D8
:1010F0005F926F927F928F929F92AF92BF92CF92A8
:10110000DF92EF92FF920F931F93CF93DF9300D064
:1011100000D0CDB7DEB76C017B011C821B8281E061
:1011200090E09A838983809155018D3010F480E09E
:1011300070C009E713E09E012D5F3F4FAE014F5F86
:101140005F4FC6010E940308892B89F79E012D5F1E
:101150003F4FAE014F5F5F4FB701C6010E940308CA
:10116000019729F79E012D5F3F4FAE014F5F5F4F03
:10117000B701C6010E940308892BC9F6412C512CE6
:101180003201A12CB12C8091550190E029813A8146
:10119000281739079CF509E713E09E012D5F3F4FA3
:1011A000AE014F5F5F4FB701C6010E9403084C01BB
:1011B0009E012D5F3F4FAE014F5F5F4FB701C601EC
:1011C0000E94030821E08216910451F4892B09F052
:1011D000AECF440C551C661C771C689440F80AC0BE
:1011E000892809F0A4CF019709F0A1CF440C551C20
:1011F000661C771C8FEFA81AB80AC5CFF701B18615
:10120000A086448255826682778281E090E0918355
:1012100080830F900F900F900F90DF91CF911F91CF
:101220000F91FF90EF90DF90CF90BF90AF909F9085
:101230008F907F906F905F904F9008952F923F9284
:101240004F925F926F927F928F929F92AF92BF92D6
:10125000CF92DF92EF92FF920F931F93CF93DF9382
:1012600000D000D0CDB7DEB76C017B011C821B82A1
:10127000DB011C968D919C911D971816190614F090
:1012800080E0BDC0DB011A96ED91FC911B9782E0D6
:1012900090E09A838983828193816AE67AE00E9452
:1012A0002901892B69F3D7011A96ED91FC911B97BF
:1012B00089819A819C012F5F3F4F3A832983880F50
:1012C000991FE80FF91F8081918169E773E00E94FF
:1012D0006F01892BA9F20CEB11E09E012D5F3F4FAE
:1012E000AE014F5F5F4FB701C6010E940308892B13
:1012F00039F69E012D5F3F4FAE014F5F5F4FB70143
:10130000C6010E940308019709F0BACF212C312CA5
:101310002101A12CB12C29813A81F7018485958581
:10132000281739070CF060C00CEB11E09E012D5F0F
:101330003F4FAE014F5F5F4FB701C6010E940308E8
:101340003C01B3E0AB16B10491F00CEB11E09E014F
:101350002D5F3F4FAE014F5F5F4FB701C6010E9447
:1013600003084C01E3E0AE16B10409F510C00CEB24
:1013700011E09E012D5F3F4FAE014F5F5F4FB70100
:10138000C6010E94030868167906F9F279CF0CEBC2
:1013900011E09E012D5F3F4FAE014F5F5F4FB701E0
:1013A000C6010E9403088816990609F069CF6114E6
:1013B000710459F48A94892809F062CF220C331CF5
:1013C000441C551C689420F80BC06A94672809F0E7
:1013D00057CF892809F054CF220C331C441C551CCC
:1013E000AFEFAA1ABA0A97CFB186A08624823582B7
:1013F0004682578282E090E09183808381E00F9063
:101400000F900F900F90DF91CF911F910F91FF9050
:10141000EF90DF90CF90BF90AF909F908F907F9094
:101420006F905F904F903F902F900895AF92BF9232
:10143000CF92DF92EF92FF920F931F93CF93DF93A0
:10144000EB01EA85FB858281938168E873E10E9464
:101450002901892B11F480E07DC0809155018430F1
:1014600019F5EA85FB85848195816AEC78E00E9414
:101470006F01892BC9F0EA85FB858681978160E33E
:1014800072E00E942901892B79F0198618868FEF66
:101490009FEFDC018C839D83AE83BF8387E090E068
:1014A0009983888381E056C080915501843498F2F5
:1014B000EA85FB858481958168E873E10E946F016C
:1014C000892B49F206E010E0C12CD12C7601EA8587
:1014D000FB85E00FF11F8081918160E372E00E9443
:1014E0002901892B09F4B7CF580182E0A80EB11C5D
:1014F000EA85FB85EA0DFB1D8081918160E476E041
:101500000E946F01892B39F0CC0CDD1CEE1CFF1CF6
:101510006894C0F811C0EA85FB85EA0DFB1D808147
:10152000918160E372E00E946F01892B09F493CFEF
:10153000CC0CDD1CEE1CFF1C0C5F1F4F0638110588
:1015400031F680E290E099878887CC82DD82EE8256
:10155000FF82A4CFDF91CF911F910F91FF90EF9069
:10156000DF90CF90BF90AF9008958F929F92AF92EF
:10157000BF92CF92DF92EF92FF920F931F93CF9380
:10158000DF93EB01809155018A3108F47AC0EA8536
:10159000FB85808191818032934050F419861886B2
:1015A0008FEF9FEFDC018C839D83AE83BF836FC081
:1015B000828193816CEA7DE00E942901892B09F4E4
:1015C00060C0EA85FB85848195816CEA7DE00E949C
:1015D0002901892B09F455C054E0A52EB12C03E054
:1015E00010E0C12CD12C76018091550190E0A81615
:1015F000B906E4F5EA85FB85C801880F991FE80F55
:10160000F91F8081918166EB73E00E946F01892B45
:1016100061F14501880C991CEA85FB85E80DF91DEF
:101620008081918160E679E00E942901892B39F05F
:10163000CC0CDD1CEE1CFF1C6894C0F810C0EA85C1
:10164000FB85E80DF91D808191816CEB72E00E94B1
:101650002901892BB1F0CC0CDD1CEE1CFF1C0E5FA8
:101660001F4F82E0A80EB11CBFCF850101501109A8
:1016700015950795198708870C30110524F41986EC
:10168000188680E009C0CC82DD82EE82FF828BE08A
:1016900090E09983888381E0DF91CF911F910F9132
:1016A000FF90EF90DF90CF90BF90AF909F908F9082
:1016B00008958F929F92AF92BF92CF92DF92EF9256
:1016C000FF920F931F93CF93DF93EB01809155010E
:1016D0008A3108F471C0EA85FB8580819181843F5D
:1016E000914060F4198618868FEF9FEFDC018C83A0
:1016F0009D83AE83BF838BE090E066C0828193813F
:1017000060E679E00E942901892B09F455C073E055
:10171000A72EB12C02E010E0C12CD12C76018091D3
:10172000550190E0A816B906E4F5EA85FB85C801E5
:10173000880F991FE80FF91F8081918168E572E099
:101740000E946F01892B61F14501880C991CEA8583
:10175000FB85E80DF91D8081918160EB74E00E94AA
:101760002901892B39F0CC0CDD1CEE1CFF1C689480
:10177000C0F810C0EA85FB85E80DF91D80819181D4
:1017800068E572E00E942901892BB1F0CC0CDD1CC8
:10179000EE1CFF1C0E5F1F4F82E0A80EB11CBFCFD6
:1017A00085010150110915950795198708870C3097
:1017B000110524F41986188680E009C0CC82DD82E8
:1017C000EE82FF8284E090E09983888381E0DF915C
:1017D000CF911F910F91FF90EF90DF90CF90BF902E
:1017E000AF909F908F900895AF92BF92CF92DF926B
:1017F000EF92FF920F931F93CF93DF93EB018091B2
:101800005501863410F480E086C0EA85FB8582812C
:1018100093816EEE72E00E942901892BA1F3EA8583
:10182000FB85848195816EEE72E00E946F01892BA9
:1018300051F3EA85FB858681978162E27BE00E9415
:101840002901892B01F3EA85FB858085918562E278
:101850007BE00E946F01892BB1F25CE0A52EB12CD8
:1018600005E010E0C12CD12C7601EA85FB85C8018A
:10187000880F991FE80FF91F808191816EEE72E049
:101880000E942901892B09F4BECFEA85FB85EA0D68
:10189000FB1D8081918166E678E00E946F01892BB3
:1018A00039F0CC0CDD1CEE1CFF1C6894C0F811C094
:1018B000EA85FB85EA0DFB1D808191816EEE72E069
:1018C0000E946F01892B09F49ECFCC0CDD1CEE1C0D
:1018D000FF1C0E5F1F4F84E0A80EB11C05341105DC
:1018E00021F6EA85FB85E657FF4F808191816EEEF8
:1018F00072E00E942901892B09F485CF80E290E0F3
:1019000099878887CC82DD82EE82FF8288E090E032
:101910009983888381E0DF91CF911F910F91FF9090
:10192000EF90DF90CF90BF90AF9008951F920F92ED
:101930000FB60F9211242F933F938F939F93AF93E2
:10194000BF938091240290912502A0912602B0912C
:1019500027023091230223E0230F2D3720F4019634
:10196000A11DB11D05C026E8230F0296A11DB11DC2
:10197000209323028093240290932502A0932602B1
:10198000B09327028091280290912902A0912A0207
:10199000B0912B020196A11DB11D80932802909356
:1019A0002902A0932A02B0932B02BF91AF919F917D
:1019B0008F913F912F910F900FBE0F901F90189510
:1019C000789484B5826084BD84B5816084BD85B51A
:1019D000826085BD85B5816085BDEEE6F0E08081E1
:1019E00081608083E1E8F0E0108280818260808302
:1019F000808181608083E0E8F0E080818160808385
:101A0000E1EBF0E0808184608083E0EBF0E08081B6
:101A100081608083EAE7F0E0808184608083808158
:101A20008260808380818160808380818068808300
:101A30001092C1000895833081F028F4813099F02C
:101A40008230A1F008958730A9F08830B9F0843051
:101A5000D1F4809180008F7D03C0809180008F77CA
:101A600080938000089584B58F7702C084B58F7D00
:101A700084BD08958091B0008F7703C08091B0003D
:101A80008F7D8093B0000895CF93DF9390E0FC01A9
:101A9000E458FF4F2491FC01E057FF4F84918823C5
:101AA00049F190E0880F991FFC01E854FF4FA59180
:101AB000B49182559F4FFC01C591D4919FB761119C
:101AC00008C0F8948C91209582238C93888182237E
:101AD0000AC0623051F4F8948C91322F30958323F0
:101AE0008C938881822B888304C0F8948C91822BFC
:101AF0008C939FBFDF91CF9108950F931F93CF9346
:101B0000DF931F92CDB7DEB7282F30E0F901E859F7
:101B1000FF4F8491F901E458FF4F1491F901E05708
:101B2000FF4F04910023C9F0882321F069830E94AC
:101B30001B0D6981E02FF0E0EE0FFF1FE255FF4F14
:101B4000A591B4919FB7F8948C91611103C0109541
:101B5000812301C0812B8C939FBF0F90DF91CF9188
:101B60001F910F910895CF93DF93282F30E0F90153
:101B7000E859FF4F8491F901E458FF4FD491F901DE
:101B8000E057FF4FC491CC2391F081110E941B0DAF
:101B9000EC2FF0E0EE0FFF1FEC55FF4FA591B49135
:101BA0002C912D2381E090E021F480E002C080E0C0
:101BB00090E0DF91CF910895FC01818D228D90E01E
:101BC000805C9F4F821B91098F7399270895FC01B8
:101BD000918D828D981731F0828DE80FF11D858DE2
:101BE00090E008958FEF9FEF0895FC01918D828D15
:101BF000981761F0828DDF01A80FB11D5D968C9161
:101C0000928D9F5F9F73928F90E008958FEF9FEF6B
:101C1000089589E79FE0892B49F080E090E0892BC7
:101C200029F00E94790F81110C9400000895FC01A5
:101C3000848DDF01A80FB11DA35ABF4F2C91848D55
:101C400090E001968F739927848FA689B7892C938A
:101C5000A089B1898C9180648C93938D848D981325
:101C600006C00288F389E02D80818F7D80830895EE
:101C7000CF93DF93EC01888D8823C9F0EA89FB8933
:101C8000808185FD05C0A889B9898C9186FD0FC02A
:101C90000FB607FCF5CF808185FFF2CFA889B989FF
:101CA0008C9185FFEDCFCE010E94170EE7CFDF911B
:101CB000CF910895CF92DF92FF920F931F93CF930E
:101CC000DF931F92CDB7DEB76C0181E0D601589645
:101CD0008C9358975B969C915B975C968C915C97E4
:101CE000981307C05096ED91FC915197808185FD26
:101CF0002EC0F601038D10E00F5F1F4F0F731127E9
:101D0000F02EF601848DF81211C00FB607FCF9CF42
:101D1000D6015096ED91FC915197808185FFF1CFCE
:101D2000C60169830E94170E6981EBCF838DE80F8E
:101D3000F11DE35AFF4F6083D6015B960C935B97CE
:101D40005296ED91FC915397808180620CC0D60130
:101D50005696ED91FC91579760835096ED91FC91CA
:101D6000519780818064808381E090E00F90DF91C3
:101D7000CF911F910F91FF90DF90CF900895BF9268
:101D8000CF92DF92EF92FF92CF93DF93EC016A0143
:101D90007B01B22EE889F98982E08083411581EECA
:101DA000580761057105A1F060E079E08DE390E0EE
:101DB000A70196010E9428132150310941095109B8
:101DC0005695479537952795211580E1380798F066
:101DD000E889F989108260E874E88EE190E0A70153
:101DE00096010E9428132150310941095109569545
:101DF000479537952795EC85FD853083EE85FF85E2
:101E00002083188EEC89FD89B082EA89FB89808164
:101E100080618083EA89FB89808188608083EA8988
:101E2000FB89808180688083EA89FB8980818F7D3E
:101E30008083DF91CF91FF90EF90DF90CF90BF90A4
:101E400008951F920F920FB60F9211242F938F9324
:101E50009F93EF93FF93E0913C02F0913D028081CC
:101E6000E0914202F091430282FD12C09081809184
:101E700045028F5F8F7320914602821751F0E091E7
:101E80004502F0E0E45DFD4F958F8093450201C06F
:101E90008081FF91EF919F918F912F910F900FBEB5
:101EA0000F901F9018951F920F920FB60F9211244A
:101EB0002F933F934F935F936F937F938F939F9352
:101EC000AF93BF93EF93FF938CE292E00E94170EC3
:101ED000FF91EF91BF91AF919F918F917F916F9102
:101EE0005F914F913F912F910F900FBE0F901F90D8
:101EF00018958CE292E00E94DC0D21E0892B09F418
:101F000020E0822F089510922F0210922E0288EE68
:101F100093E0A0E0B0E08093300290933102A09370
:101F20003202B093330282E291E090932D028093CB
:101F30002C0285EC90E0909339028093380284EC77
:101F400090E090933B0280933A0280EC90E0909373
:101F50003D0280933C0281EC90E090933F0280939D
:101F60003E0282EC90E0909341028093400286EC26
:101F700090E09093430280934202109245021092A7
:101F8000460210924702109248020895CF92DF92C3
:101F9000EF92FF920F931F93CF93DF937C016A011F
:101FA000EB0100E010E00C151D0571F06991D701FF
:101FB000ED91FC910190F081E02DC7010995892BED
:101FC00019F00F5F1F4FEFCFC801DF91CF911F9125
:101FD0000F91FF90EF90DF90CF90089561157105FC
:101FE00081F0DB010D900020E9F7AD01415051096E
:101FF000461B570BDC01ED91FC910280F381E02D33
:10200000099480E090E00895DC01ED91FC9101904D
:10201000F081E02D09946EE271E00C94EE0F0F93C5
:102020001F93CF93DF93EC010E94EE0F8C01CE0142
:102030000E940B10800F911FDF91CF911F910F9184
:1020400008958F929F92AF92BF92DF92EF92FF928C
:102050000F931F93CF93DF93CDB7DEB7A1970FB642
:10206000F894DEBF0FBECDBF7C01F42FD52ECB017F
:1020700019A2223008F42AE08E010F5D1F4F822E34
:10208000912CA12CB12C6F2F7D2DA50194010E94C4
:102090002813F22FD32ECA01015011096A3014F40B
:1020A000E0E301C0E7E3E60FD801EC93232B242BF8
:1020B000252B49F7B801C7010E94EE0FA1960FB674
:1020C000F894DEBF0FBECDBFDF91CF911F910F916E
:1020D000FF90EF90DF90BF90AF909F908F9008950A
:1020E000CF92DF92EF92FF920F931F93CF93DF93E4
:1020F000EC016A017B012115310579F4E881F98150
:102100000190F081E02D642FDF91CF911F910F910D
:10211000FF90EF90DF90CF9009942A303105E9F4D9
:1021200077FF1AC06DE20E9404108C0144275527E6
:10213000BA014C195D096E097F092AE0CE010E949F
:102140002110800F911FDF91CF911F910F91FF9070
:10215000EF90DF90CF9008952AE0B701A601CE015D
:10216000DF91CF911F910F91FF90EF90DF90CF9073
:102170000C9421100F931F93CF93DF93EC019A01DE
:10218000AB01662757FD6095762F0E9470108C0179
:10219000CE010E940B10800F911FDF91CF911F91F4
:1021A0000F9108952115310541F4DC01ED91FC9169
:1021B0000190F081E02D642F09940C9421100F936D
:1021C0001F93CF93DF93EC010E94D2108C01CE01BC
:1021D0000E940B10800F911FDF91CF911F910F91E3
:1021E000089508950E94E00C0E94F1100E948D0055
:1021F000C9E0DEE00E949A002097E1F30E94090EF8
:10220000F9CF5058BB27AA270ED075C166D130F040
:102210006BD120F031F49F3F11F41EF45BC10EF43A
:10222000E095E7FB51C1E92F77D180F3BA17620738
:1022300073078407950718F071F49EF58FC10EF4AB
:10224000E0950B2EBA2FA02D0B01B90190010C01C6
:10225000CA01A0011124FF27591B99F0593F50F4DE
:10226000503E68F11A16F040A22F232F342F442736
:10227000585FF3CF469537952795A795F04053952E
:10228000C9F77EF41F16BA0B620B730B840BBAF0FE
:102290009150A1F0FF0FBB1F661F771F881FC2F769
:1022A0000EC0BA0F621F731F841F48F4879577957D
:1022B0006795B795F7959E3F08F0B3CF9395880F34
:1022C00008F09927EE0F979587950895D9D008F4CF
:1022D00081E008950CD00FC107D140F0FED030F05E
:1022E00021F45F3F19F0F0C0511139C1F3C014D18E
:1022F00098F39923C9F35523B1F3951B550BBB27CD
:10230000AA2762177307840738F09F5F5F4F220F79
:10231000331F441FAA1FA9F333D00E2E3AF0E0E872
:1023200030D091505040E695001CCAF729D0FE2FBE
:1023300027D0660F771F881FBB1F26173707480750
:10234000AB07B0E809F0BB0B802DBF01FF27935806
:102350005F4F2AF09E3F510568F0B6C000C15F3F55
:10236000ECF3983EDCF3869577956795B795F795EE
:102370009F5FC9F7880F911D9695879597F90895E6
:10238000E1E0660F771F881FBB1F62177307840782
:10239000BA0720F0621B730B840BBA0BEE1F88F791
:1023A000E095089504D06894B111D9C00895BCD0C7
:1023B00088F09F5790F0B92F9927B751A0F0D1F02E
:1023C000660F771F881F991F1AF0BA95C9F712C0B8
:1023D000B13081F0C3D0B1E00895C0C0672F782F2D
:1023E0008827B85F39F0B93FCCF386957795679524
:1023F000B395D9F73EF490958095709561957F4F90
:102400008F4F9F4F0895E89409C097FB3EF4909535
:102410008095709561957F4F8F4F9F4F9923A9F0BD
:10242000F92F96E9BB279395F6958795779567954C
:10243000B795F111F8CFFAF4BB0F11F460FF1BC090
:102440006F5F7F4F8F4F9F4F16C0882311F096E923
:1024500011C0772321F09EE8872F762F05C06623D1
:1024600071F096E8862F70E060E02AF09A95660F8A
:10247000771F881FDAF7880F9695879597F9089543
:10248000990F0008550FAA0BE0E8FEEF1616170685
:10249000E807F907C0F012161306E407F50798F0ED
:1024A000621B730B840B950B39F40A2661F0232B06
:1024B000242B252B21F408950A2609F4A140A69582
:1024C0008FEF811D811D089597F99F6780E870E067
:1024D00060E008959FEF80EC089500240A9416169A
:1024E000170618060906089500240A941216130602
:1024F000140605060895092E0394000C11F4882390
:1025000052F0BB0F40F4BF2B11F460FF04C06F5FAB
:102510007F4F8F4F9F4F089557FD9058440F551F81
:1025200059F05F3F71F04795880F97FB991F61F055
:102530009F3F79F087950895121613061406551FCC
:10254000F2CF4695F1DF08C0161617061806991F38
:10255000F1CF86957105610508940895E894BB272D
:1025600066277727CB0197F908950BD0C4CFB5DF45
:1025700028F0BADF18F0952309F0A6CFABCF1124CD
:10258000EECFCADFA0F3959FD1F3950F50E0551F12
:10259000629FF001729FBB27F00DB11D639FAA27B8
:1025A000F00DB11DAA1F649F6627B00DA11D661F07
:1025B000829F2227B00DA11D621F739FB00DA11D28
:1025C000621F839FA00D611D221F749F3327A00DE2
:1025D000611D231F849F600D211D822F762F6A2F7E
:1025E00011249F5750408AF0E1F088234AF0EE0F03
:1025F000FF1FBB1F661F771F881F91505040A9F710
:102600009E3F510570F060CFAACF5F3FECF3983E3C
:10261000DCF3869577956795B795F795E7959F5F76
:10262000C1F7FE2B880F911D9695879597F9089510
:10263000DB018F939F930E944A13BF91AF91A29F9A
:10264000800D911DA39F900DB29F900D11240895B0
:10265000A1E21A2EAA1BBB1BFD010DC0AA1FBB1FA6
:10266000EE1FFF1FA217B307E407F50720F0A21B18
:10267000B30BE40BF50B661F771F881F991F1A9485
:1026800069F760957095809590959B01AC01BD01AF
:10269000CF0108950E949213A59F900DB49F900DB5
:1026A000A49F800D911D112408950F93083090F080
:1026B000982F872F762F652F542F432F322F2227C5
:1026C0000850F4CF220F331F441F551F661F771F7A
:1026D000881F991F0A95B2F70F91089597FB10F87C
:1026E000169400080F93083098F00850232F342FC9
:1026F000452F562F672F782F892F902DF4CF0594D3
:102700009795879577956795579547953795279529
:102710000A95AAF70F910895EE0FFF1F0590F49107
:10272000E02D0994A29FB001B39FC001A39F700D3B
:10273000811D1124911DB29F700D811D1124911DC9
:062740000895F894FFCF9C
:102746006D65737361676520737461727465640087
:102756006D65737361676520656E6465640000006E
:1027660000005A0EC60FDC0DF50DE70D380E0D0AEA
:10277600006E616E00696E66006F7666002E000060
:00000001FF
